{
  "contractName": "DataExchange",
  "abi": [
    {
      "inputs": [],
      "stateMutability": "nonpayable",
      "type": "constructor"
    },
    {
      "anonymous": false,
      "inputs": [
        {
          "indexed": true,
          "internalType": "address",
          "name": "buyer",
          "type": "address"
        },
        {
          "indexed": true,
          "internalType": "address",
          "name": "seller",
          "type": "address"
        },
        {
          "indexed": false,
          "internalType": "uint256",
          "name": "amount",
          "type": "uint256"
        },
        {
          "indexed": false,
          "internalType": "string",
          "name": "dataHash",
          "type": "string"
        }
      ],
      "name": "DataExchanged",
      "type": "event"
    },
    {
      "inputs": [
        {
          "internalType": "address",
          "name": "",
          "type": "address"
        }
      ],
      "name": "balances",
      "outputs": [
        {
          "internalType": "uint256",
          "name": "",
          "type": "uint256"
        }
      ],
      "stateMutability": "view",
      "type": "function"
    },
    {
      "inputs": [],
      "name": "centralWallet",
      "outputs": [
        {
          "internalType": "address payable",
          "name": "",
          "type": "address"
        }
      ],
      "stateMutability": "view",
      "type": "function"
    },
    {
      "inputs": [
        {
          "internalType": "address payable",
          "name": "buyer",
          "type": "address"
        },
        {
          "internalType": "address payable",
          "name": "seller",
          "type": "address"
        },
        {
          "internalType": "uint256",
          "name": "price",
          "type": "uint256"
        },
        {
          "internalType": "string",
          "name": "dataHash",
          "type": "string"
        }
      ],
      "name": "exchangeData",
      "outputs": [],
      "stateMutability": "nonpayable",
      "type": "function"
    },
    {
      "inputs": [],
      "name": "depositFunds",
      "outputs": [],
      "stateMutability": "payable",
      "type": "function"
    },
    {
      "inputs": [
        {
          "internalType": "address",
          "name": "user",
          "type": "address"
        }
      ],
      "name": "getBalance",
      "outputs": [
        {
          "internalType": "uint256",
          "name": "",
          "type": "uint256"
        }
      ],
      "stateMutability": "view",
      "type": "function"
    },
    {
      "inputs": [
        {
          "internalType": "uint256",
          "name": "amount",
          "type": "uint256"
        }
      ],
      "name": "withdrawFunds",
      "outputs": [],
      "stateMutability": "nonpayable",
      "type": "function"
    }
  ],
  "bytecode": "0x608060405234801561001057600080fd5b50306000806101000a81548173ffffffffffffffffffffffffffffffffffffffff021916908373ffffffffffffffffffffffffffffffffffffffff160217905550610dd6806100606000396000f3fe6080604052600436106100555760003560e01c8063155dd5ee1461005a57806327e235e3146100835780637455bf54146100c0578063e205ecbd146100eb578063e2c41dbc14610114578063f8b2cb4f1461011e575b600080fd5b34801561006657600080fd5b50610081600480360381019061007c9190610725565b61015b565b005b34801561008f57600080fd5b506100aa60048036038101906100a591906107b0565b61027d565b6040516100b791906107ec565b60405180910390f35b3480156100cc57600080fd5b506100d5610295565b6040516100e29190610828565b60405180910390f35b3480156100f757600080fd5b50610112600480360381019061010d91906109b5565b6102b9565b005b61011c61046c565b005b34801561012a57600080fd5b50610145600480360381019061014091906107b0565b6104c4565b60405161015291906107ec565b60405180910390f35b80600160003373ffffffffffffffffffffffffffffffffffffffff1673ffffffffffffffffffffffffffffffffffffffff1681526020019081526020016000205410156101dd576040517f08c379a00000000000000000000000000000000000000000000000000000000081526004016101d490610a95565b60405180910390fd5b80600160003373ffffffffffffffffffffffffffffffffffffffff1673ffffffffffffffffffffffffffffffffffffffff168152602001908152602001600020600082825461022c9190610ae4565b925050819055503373ffffffffffffffffffffffffffffffffffffffff166108fc829081150290604051600060405180830381858888f19350505050158015610279573d6000803e3d6000fd5b5050565b60016020528060005260406000206000915090505481565b60008054906101000a900473ffffffffffffffffffffffffffffffffffffffff1681565b8373ffffffffffffffffffffffffffffffffffffffff163373ffffffffffffffffffffffffffffffffffffffff1614610327576040517f08c379a000000000000000000000000000000000000000000000000000000000815260040161031e90610b8a565b60405180910390fd5b81600160008673ffffffffffffffffffffffffffffffffffffffff1673ffffffffffffffffffffffffffffffffffffffff1681526020019081526020016000205410156103a9576040517f08c379a00000000000000000000000000000000000000000000000000000000081526004016103a090610c1c565b60405180910390fd5b6103d48460008054906101000a900473ffffffffffffffffffffffffffffffffffffffff168461050d565b6103ff60008054906101000a900473ffffffffffffffffffffffffffffffffffffffff16848461050d565b8273ffffffffffffffffffffffffffffffffffffffff168473ffffffffffffffffffffffffffffffffffffffff167fe2ab0da81abb57c82b8fd65057be2efe03e94a06662f5c52936eb47a6d67ae9a848460405161045e929190610caa565b60405180910390a350505050565b34600160003373ffffffffffffffffffffffffffffffffffffffff1673ffffffffffffffffffffffffffffffffffffffff16815260200190815260200160002060008282546104bb9190610cda565b92505081905550565b6000600160008373ffffffffffffffffffffffffffffffffffffffff1673ffffffffffffffffffffffffffffffffffffffff168152602001908152602001600020549050919050565b80600160008573ffffffffffffffffffffffffffffffffffffffff1673ffffffffffffffffffffffffffffffffffffffff16815260200190815260200160002054101561058f576040517f08c379a000000000000000000000000000000000000000000000000000000000815260040161058690610d80565b60405180910390fd5b80600160008573ffffffffffffffffffffffffffffffffffffffff1673ffffffffffffffffffffffffffffffffffffffff16815260200190815260200160002060008282546105de9190610ae4565b9250508190555080600160008473ffffffffffffffffffffffffffffffffffffffff1673ffffffffffffffffffffffffffffffffffffffff16815260200190815260200160002060008282546106349190610cda565b9250508190555060008054906101000a900473ffffffffffffffffffffffffffffffffffffffff1673ffffffffffffffffffffffffffffffffffffffff168273ffffffffffffffffffffffffffffffffffffffff16146106d6578173ffffffffffffffffffffffffffffffffffffffff166108fc829081150290604051600060405180830381858888f193505050501580156106d4573d6000803e3d6000fd5b505b505050565b6000604051905090565b600080fd5b600080fd5b6000819050919050565b610702816106ef565b811461070d57600080fd5b50565b60008135905061071f816106f9565b92915050565b60006020828403121561073b5761073a6106e5565b5b600061074984828501610710565b91505092915050565b600073ffffffffffffffffffffffffffffffffffffffff82169050919050565b600061077d82610752565b9050919050565b61078d81610772565b811461079857600080fd5b50565b6000813590506107aa81610784565b92915050565b6000602082840312156107c6576107c56106e5565b5b60006107d48482850161079b565b91505092915050565b6107e6816106ef565b82525050565b600060208201905061080160008301846107dd565b92915050565b600061081282610752565b9050919050565b61082281610807565b82525050565b600060208201905061083d6000830184610819565b92915050565b61084c81610807565b811461085757600080fd5b50565b60008135905061086981610843565b92915050565b600080fd5b600080fd5b6000601f19601f8301169050919050565b7f4e487b7100000000000000000000000000000000000000000000000000000000600052604160045260246000fd5b6108c282610879565b810181811067ffffffffffffffff821117156108e1576108e061088a565b5b80604052505050565b60006108f46106db565b905061090082826108b9565b919050565b600067ffffffffffffffff8211156109205761091f61088a565b5b61092982610879565b9050602081019050919050565b82818337600083830152505050565b600061095861095384610905565b6108ea565b90508281526020810184848401111561097457610973610874565b5b61097f848285610936565b509392505050565b600082601f83011261099c5761099b61086f565b5b81356109ac848260208601610945565b91505092915050565b600080600080608085870312156109cf576109ce6106e5565b5b60006109dd8782880161085a565b94505060206109ee8782880161085a565b93505060406109ff87828801610710565b925050606085013567ffffffffffffffff811115610a2057610a1f6106ea565b5b610a2c87828801610987565b91505092959194509250565b600082825260208201905092915050565b7f496e73756666696369656e742062616c616e636520746f207769746864726177600082015250565b6000610a7f602083610a38565b9150610a8a82610a49565b602082019050919050565b60006020820190508181036000830152610aae81610a72565b9050919050565b7f4e487b7100000000000000000000000000000000000000000000000000000000600052601160045260246000fd5b6000610aef826106ef565b9150610afa836106ef565b9250828203905081811115610b1257610b11610ab5565b5b92915050565b7f4f6e6c79207468652062757965722063616e20696e697469617465207468652060008201527f7472616e73616374696f6e000000000000000000000000000000000000000000602082015250565b6000610b74602b83610a38565b9150610b7f82610b18565b604082019050919050565b60006020820190508181036000830152610ba381610b67565b9050919050565b7f496e73756666696369656e742062616c616e636520666f72207472616e73616360008201527f74696f6e00000000000000000000000000000000000000000000000000000000602082015250565b6000610c06602483610a38565b9150610c1182610baa565b604082019050919050565b60006020820190508181036000830152610c3581610bf9565b9050919050565b600081519050919050565b60005b83811015610c65578082015181840152602081019050610c4a565b60008484015250505050565b6000610c7c82610c3c565b610c868185610a38565b9350610c96818560208601610c47565b610c9f81610879565b840191505092915050565b6000604082019050610cbf60008301856107dd565b8181036020830152610cd18184610c71565b90509392505050565b6000610ce5826106ef565b9150610cf0836106ef565b9250828201905080821115610d0857610d07610ab5565b5b92915050565b7f496e73756666696369656e742062616c616e636520696e20676976657227732060008201527f77616c6c65740000000000000000000000000000000000000000000000000000602082015250565b6000610d6a602683610a38565b9150610d7582610d0e565b604082019050919050565b60006020820190508181036000830152610d9981610d5d565b905091905056fea2646970667358221220fbe1e4ade4c80c3b024e4265287e6933c369dc682886c163590f1f5db33808b164736f6c63430008110033",
  "immutableReferences": {},
  "source": "// SPDX-License-Identifier: MIT\r\npragma solidity ^0.8.0;\r\n\r\ncontract DataExchange {\r\n\r\n    // Address of the central wallet (controlled by the contract)\r\n    address payable public centralWallet;\r\n    // Mapping to keep track of user balances within the contract\r\n    mapping(address => uint) public balances;\r\n\r\n    // Event to log the completion of a data exchange\r\n    event DataExchanged(address indexed buyer, address indexed seller, uint amount, string dataHash);\r\n\r\n    // Constructor to set the central wallet (could be the deployer's address)\r\n    constructor() {\r\n        centralWallet = payable(address(this)); // Central wallet is the contract itself\r\n    }\r\n\r\n    // Function to handle the exchange of data\r\n    function exchangeData(address payable buyer, address payable seller, uint price, string memory dataHash) public {\r\n        require(msg.sender == buyer, \"Only the buyer can initiate the transaction\");\r\n        require(balances[buyer] >= price, \"Insufficient balance for transaction\");\r\n\r\n        // First call: transfer money from the buyer's wallet to the central wallet\r\n        _transfer(buyer, centralWallet, price);\r\n\r\n        // Second call: transfer money from the central wallet to the seller's wallet\r\n        _transfer(centralWallet, seller, price);\r\n\r\n        // Emit event for logging purposes (stores a hash representing the data being exchanged)\r\n        emit DataExchanged(buyer, seller, price, dataHash);\r\n    }\r\n\r\n    // Internal function to handle money transfers\r\n    function _transfer(address payable giver, address payable receiver, uint amount) internal {\r\n        require(balances[giver] >= amount, \"Insufficient balance in giver's wallet\");\r\n\r\n        // Decrease the balance of the giver\r\n        balances[giver] -= amount;\r\n\r\n        // Increase the balance of the receiver\r\n        balances[receiver] += amount;\r\n\r\n        // If the receiver is a wallet (not the contract itself), transfer the Ether\r\n        if (receiver != centralWallet) {\r\n            receiver.transfer(amount);\r\n        }\r\n    }\r\n\r\n    // Payable function to deposit Ether into the contract (buyer can deposit funds to their balance)\r\n    function depositFunds() public payable {\r\n        balances[msg.sender] += msg.value;\r\n    }\r\n\r\n    // View function to check the balance of any user\r\n    function getBalance(address user) public view returns (uint) {\r\n        return balances[user];\r\n    }\r\n\r\n    // Withdraw function to allow users to withdraw funds from the contract\r\n    function withdrawFunds(uint amount) public {\r\n        require(balances[msg.sender] >= amount, \"Insufficient balance to withdraw\");\r\n\r\n        // Decrease the user's balance\r\n        balances[msg.sender] -= amount;\r\n\r\n        // Transfer the amount back to the user\r\n        payable(msg.sender).transfer(amount);\r\n    }\r\n}\r\n",
  "sourcePath": "C:\\Users\\gewod\\OneDrive\\Documents\\CSC301 - Intro to Software Engineering\\project-23-the-code-breakers\\contracts\\transaction.sol",
  "compiler": {
    "name": "solc",
    "version": "0.8.17+commit.8df45f5f.Emscripten.clang"
  },
  "schemaVersion": "3.4.16",
  "updatedAt": "2024-11-12T01:49:48.390Z",
  "devdoc": {
    "kind": "dev",
    "methods": {},
    "version": 1
  },
  "userdoc": {
    "kind": "user",
    "methods": {},
    "version": 1
  }
}